{
    "_format": "hh-sol-artifact-1",
    "contractName": "Transactions",
    "sourceName": "contracts/Transactions.sol",
    "abi": [
        {
            "anonymous": false,
            "inputs": [
                {
                    "indexed": false,
                    "internalType": "address",
                    "name": "from",
                    "type": "address"
                },
                {
                    "indexed": false,
                    "internalType": "address",
                    "name": "receiver",
                    "type": "address"
                },
                {
                    "indexed": false,
                    "internalType": "uint256",
                    "name": "amount",
                    "type": "uint256"
                },
                {
                    "indexed": false,
                    "internalType": "string",
                    "name": "message",
                    "type": "string"
                },
                {
                    "indexed": false,
                    "internalType": "uint256",
                    "name": "timestamp",
                    "type": "uint256"
                },
                {
                    "indexed": false,
                    "internalType": "string",
                    "name": "keyword",
                    "type": "string"
                }
            ],
            "name": "Transfer",
            "type": "event"
        },
        {
            "inputs": [
                {
                    "internalType": "address payable",
                    "name": "receiver",
                    "type": "address"
                },
                {
                    "internalType": "uint256",
                    "name": "amount",
                    "type": "uint256"
                },
                {
                    "internalType": "string",
                    "name": "message",
                    "type": "string"
                },
                {
                    "internalType": "string",
                    "name": "keyword",
                    "type": "string"
                }
            ],
            "name": "addToBLockchain",
            "outputs": [],
            "stateMutability": "nonpayable",
            "type": "function"
        },
        {
            "inputs": [],
            "name": "getAllTransactions",
            "outputs": [
                {
                    "components": [
                        {
                            "internalType": "address",
                            "name": "sender",
                            "type": "address"
                        },
                        {
                            "internalType": "address",
                            "name": "receiver",
                            "type": "address"
                        },
                        {
                            "internalType": "uint256",
                            "name": "amount",
                            "type": "uint256"
                        },
                        {
                            "internalType": "string",
                            "name": "message",
                            "type": "string"
                        },
                        {
                            "internalType": "uint256",
                            "name": "timestamp",
                            "type": "uint256"
                        },
                        {
                            "internalType": "string",
                            "name": "keyword",
                            "type": "string"
                        }
                    ],
                    "internalType": "struct Transactions.TransferStruct[]",
                    "name": "",
                    "type": "tuple[]"
                }
            ],
            "stateMutability": "view",
            "type": "function"
        },
        {
            "inputs": [
                {
                    "internalType": "uint256",
                    "name": "",
                    "type": "uint256"
                }
            ],
            "name": "getTransactionCount",
            "outputs": [
                {
                    "internalType": "uint256",
                    "name": "",
                    "type": "uint256"
                }
            ],
            "stateMutability": "view",
            "type": "function"
        }
    ],
    "bytecode": "0x608060405234801561001057600080fd5b50610a74806100206000396000f3fe608060405234801561001057600080fd5b50600436106100415760003560e01c806327506f53146100465780633de5d0de14610064578063a7af344914610094575b600080fd5b61004e6100b0565b60405161005b9190610566565b60405180910390f35b61007e600480360381019061007991906105c8565b6100b5565b60405161008b9190610604565b60405180910390f35b6100ae60048036038101906100a99190610792565b6100bc565b005b606090565b6000919050565b60016000808282546100ce9190610860565b9250508190555060016040518060c001604052803373ffffffffffffffffffffffffffffffffffffffff1681526020018673ffffffffffffffffffffffffffffffffffffffff16815260200185815260200184815260200142815260200183815250908060018154018082558091505060019003906000526020600020906006020160009091909190915060008201518160000160006101000a81548173ffffffffffffffffffffffffffffffffffffffff021916908373ffffffffffffffffffffffffffffffffffffffff16021790555060208201518160010160006101000a81548173ffffffffffffffffffffffffffffffffffffffff021916908373ffffffffffffffffffffffffffffffffffffffff16021790555060408201518160020155606082015181600301908051906020019061020d92919061027e565b506080820151816004015560a082015181600501908051906020019061023492919061027e565b5050507f416cfa4330a4565f45c2fd2dd4826a83a37443aba2ce6f79477c7355afac35fa3385858542866040516102709695949392919061096e565b60405180910390a150505050565b82805461028a90610a0c565b90600052602060002090601f0160209004810192826102ac57600085556102f3565b82601f106102c557805160ff19168380011785556102f3565b828001600101855582156102f3579182015b828111156102f25782518255916020019190600101906102d7565b5b5090506103009190610304565b5090565b5b8082111561031d576000816000905550600101610305565b5090565b600081519050919050565b600082825260208201905092915050565b6000819050602082019050919050565b600073ffffffffffffffffffffffffffffffffffffffff82169050919050565b60006103788261034d565b9050919050565b6103888161036d565b82525050565b6000819050919050565b6103a18161038e565b82525050565b600081519050919050565b600082825260208201905092915050565b60005b838110156103e15780820151818401526020810190506103c6565b838111156103f0576000848401525b50505050565b6000601f19601f8301169050919050565b6000610412826103a7565b61041c81856103b2565b935061042c8185602086016103c3565b610435816103f6565b840191505092915050565b600060c083016000830151610458600086018261037f565b50602083015161046b602086018261037f565b50604083015161047e6040860182610398565b50606083015184820360608601526104968282610407565b91505060808301516104ab6080860182610398565b5060a083015184820360a08601526104c38282610407565b9150508091505092915050565b60006104dc8383610440565b905092915050565b6000602082019050919050565b60006104fc82610321565b610506818561032c565b9350836020820285016105188561033d565b8060005b85811015610554578484038952815161053585826104d0565b9450610540836104e4565b925060208a0199505060018101905061051c565b50829750879550505050505092915050565b6000602082019050818103600083015261058081846104f1565b905092915050565b6000604051905090565b600080fd5b600080fd5b6105a58161038e565b81146105b057600080fd5b50565b6000813590506105c28161059c565b92915050565b6000602082840312156105de576105dd610592565b5b60006105ec848285016105b3565b91505092915050565b6105fe8161038e565b82525050565b600060208201905061061960008301846105f5565b92915050565b600061062a8261034d565b9050919050565b61063a8161061f565b811461064557600080fd5b50565b60008135905061065781610631565b92915050565b600080fd5b600080fd5b7f4e487b7100000000000000000000000000000000000000000000000000000000600052604160045260246000fd5b61069f826103f6565b810181811067ffffffffffffffff821117156106be576106bd610667565b5b80604052505050565b60006106d1610588565b90506106dd8282610696565b919050565b600067ffffffffffffffff8211156106fd576106fc610667565b5b610706826103f6565b9050602081019050919050565b82818337600083830152505050565b6000610735610730846106e2565b6106c7565b90508281526020810184848401111561075157610750610662565b5b61075c848285610713565b509392505050565b600082601f8301126107795761077861065d565b5b8135610789848260208601610722565b91505092915050565b600080600080608085870312156107ac576107ab610592565b5b60006107ba87828801610648565b94505060206107cb878288016105b3565b935050604085013567ffffffffffffffff8111156107ec576107eb610597565b5b6107f887828801610764565b925050606085013567ffffffffffffffff81111561081957610818610597565b5b61082587828801610764565b91505092959194509250565b7f4e487b7100000000000000000000000000000000000000000000000000000000600052601160045260246000fd5b600061086b8261038e565b91506108768361038e565b9250827fffffffffffffffffffffffffffffffffffffffffffffffffffffffffffffffff038211156108ab576108aa610831565b5b828201905092915050565b6108bf8161036d565b82525050565b6000819050919050565b60006108ea6108e56108e08461034d565b6108c5565b61034d565b9050919050565b60006108fc826108cf565b9050919050565b600061090e826108f1565b9050919050565b61091e81610903565b82525050565b600082825260208201905092915050565b6000610940826103a7565b61094a8185610924565b935061095a8185602086016103c3565b610963816103f6565b840191505092915050565b600060c08201905061098360008301896108b6565b6109906020830188610915565b61099d60408301876105f5565b81810360608301526109af8186610935565b90506109be60808301856105f5565b81810360a08301526109d08184610935565b9050979650505050505050565b7f4e487b7100000000000000000000000000000000000000000000000000000000600052602260045260246000fd5b60006002820490506001821680610a2457607f821691505b60208210811415610a3857610a376109dd565b5b5091905056fea26469706673582212201656d675179a828f21887d54966dbf890fb6b4469d0b5a614600313be516202e64736f6c63430008090033",
    "linkReferences": {},
    "deployedLinkReferences": {}
}